:1005C7000000000000000000000000000000000024
:1004A10008086060606060606060202310000800E0
:1004B10010A7625BF80322F80047B610181D1CC78D
:1004C10000B2EA2A0011598135090B060405000C16
:10052300E4FDFCC3ED9FEC9E50070DBD00010C8064
:10053300F2E4FCFDC3ED9FEC9E50070DBD00010CE2
:0205430080F244
:010545002293
:10056400000000000000000000000000000000EF98
:090574001F70011E144E70E822F4
:0705EC00C295C292D29522D4
:0A05E2001205EC7F887E130205234A
:1004D200E4FEC292FDEF30E704D2978002C297EFAA
:1004E20025E0FFD2920000EE25E0FE3096010EC21A
:0904F2009200000DBD08DEAF060A
:0104FB0022DE
:1005B700C2952096FD7F301204D22096FDD2952257
:10054600D2957F017E00120564C2957F017E00125E
:0E0556000564D2957F297E001205640205B768
:1005A500AC05C2952096FD1204D2AF041204D2D236
:0205B50095228D
:06046F008B478A48894911
:10047500EF4440FFC2952096FD1204D2E4FCECC384
:10048500954A5015AB47AA48A9498C827583001235
:0B0495000112FF1204D20C80E5D2958A
:0104A0002239
:0B05D700C2952096FD1204D2D295229E
:10057D00EF4480FFC2952096FD1204D2E4FF1204D1
:03058D00D2D29532
:010590002248
:06043B008B4F8A5089512D
:10044100EF44C0FFC2952096FD1204D2E4FCECC338
:1004510095525017E4FF1204D2AB4FAA50A9518C08
:0D04610082758300EF1201510C80E3D295EB
:01046E00226B
:10059100EF44C0FFC2952096FD1204D2E4FF12047D
:0305A100D2D2951E
:0105A4002234
:10017300AD107F0C1205A5AD117F0B1205A5AD12B5
:100183007F0C1205A5AD137F0D1205A5AD147F0ECF
:100193001205A5AD157F0F1205A5AD167F1012052B
:1001A300A5AD177F111205A5AD187F121205A5ADD8
:1001B300197F131205A5AD1A7F141205A5AD1B7F78
:1001C3000A1205A5AD1C7F151205A5AD1D7F2112D1
:1001D30005A5AD1E7F221205A5AD1F7F181205A52B
:1001E300AD207F191205A5AD217F1A1205A5AD22F9
:1001F3007F1B1205A5AD237F1C1205A5AD247F1D12
:100203001205A5AD257F231205A5AD267F24120572
:10021300A5AD277F251205A5AD287F261205A5AD1F
:10022300297F291205A5AD2A7F2C1205A5AD2B7FA9
:100233002D1205A5AD2C7F2E1205A5AD2DE4FF12C1
:1002430005A5AD2E7F021205A5AD2F7F071205A5CB
:10025300AD307F081205A5AD317F091205A5AD327A
:050263007F060205A565
:0804FC007B007A0079357D08D0
:100504008D457F3F1205A585454A7F3F12046F7FC5
:0F051400351205D73090FD2090FD7F3B0205D7B3
:0505F3007F340205D772
:060312008B458A46894775
:10031800AB48AA49A94A1200F925E025E0FB7F3439
:100328001205D77F027E001205233090117F027ECE
:10033800001205231BEBC3940150EF7F00227F3B83
:10034800120591EF547F605C7F3F12057D8F4DABA6
:1003580048AA49A94A1200F9FFE54DD39F5032AB8C
:1003680045AA46A947854D527F3F12043BAB48AA90
:1003780049A94AE54D12013F7B007A00794B755235
:10038800027F3F12043B7F3A1205D7E54C5480FFA9
:1003980022AB48AA49A94AE54D12013F7F3A120506
:0603A800D77F00227F0058
:0103AE00222C
:10026800E4F533F53478357C00FD7BFF7A0579C7F2
:10027800FE7F081200D3783D7C007D007BFF7A0565
:1002880079CF7E007F081200D31205E212054612CC
:1002980001737B007A007908754A087F3E12046F63
:1002A8007536017537011204FC7F707E171205231D
:1002B8007580BFC2B520B406753601753401E534C2
:1002C800B40117C2B51204FC7536FF7537FFE4F5A3
:1002D800347FF47E01120523D2B5753308754800C2
:1002E800754900754A337B007A00793D120312EF95
:1002F8006010E53EB40102C2B57FE87E0312052313
:0A030800D2B5753EFF753FFF80ABD4
:030000000203AF49
:0C03AF00787FE4F6D8FD7581520203F659
:10000300E709F608DFFA8046E709F208DFFA803EDF
:1000130088828C83E709F0A3DFFA8032E309F608CC
:10002300DFFA8078E309F208DFFA807088828C8334
:10003300E309F0A3DFFA806489828A83E0A3F608E8
:10004300DFFA805889828A83E0A3F208DFFA804CC2
:1000530080D280FA80C680D4806980F28033801099
:1000630080A680EA809A80A880DA80E280CA803302
:1000730089828A83ECFAE493A3C8C582C8CCC5837A
:10008300CCF0A3C8C582C8CCC583CCDFE9DEE7804A
:100093000D89828A83E493A3F608DFF9ECFAA9F0C9
:1000A300EDFB2289828A83ECFAE0A3C8C582C8CC1F
:1000B300C583CCF0A3C8C582C8CCC583CCDFEADE38
:1000C300E880DB89828A83E493A3F208DFF980CC9A
:1000D30088F0EF60010E4E60C388F0ED2402B40493
:1000E3000050B9F582EB2402B4040050AF2323453A
:0600F3008223900053730C
:1000F900BB010689828A83E0225002E722BBFE0205
:09010900E32289828A83E4932237
:10011200BB010CE58229F582E5833AF583E02250A2
:1001220006E92582F8E622BBFE06E92582F8E222EC
:0D013200E58229F582E5833AF583E4932206
:10013F00BB010689828A83F0225002F722BBFE019F
:02014F00F32299
:10015100F8BB010DE58229F582E5833AF583E8F0E4
:10016100225006E92582C8F622BBFE05E92582C890
:02017100F22278
:1003BB00020268E493A3F8E493A34003F68001F2EE
:1003CB0008DFF48029E493A3F85407240CC8C33343
:1003DB00C4540F4420C8834004F456800146F6DF12
:1003EB00E4800B01020408102040809004A1E47EFD
:1003FB00019360BCA3FF543F30E509541FFEE49307
:10040B00A360010ECF54C025E060A840B8E493A3CD
:10041B00FAE493A3F8E493A3C8C582C8CAC583CAF8
:10042B00F0A3C8C582C8CAC583CADFE9DEE780BEB0
:0104D100002A
:00000001FF
