:100F6200010203040506070800000000000000005B
:100CBF00080860606060606060600A35C0CFA4B0F3
:100CCF00999282F880900A3F404F2430191202788F
:100CDF0000100233000020231000080010A7625BF1
:100CEF00F80322F80047B610181D1CC700B2EA2AF5
:0C0CFF000011598135090B060405000C9A
:100E8A00E4FDFCC3ED9FEC9E50070DBD00010C80F4
:100E9A00F2E4FCFDC3ED9FEC9E50070DBD00010C72
:020EAA0080F2D4
:010EAC002223
:100EEA00000000000000000000000000000000EF09
:090EFA001F70011E144E70E82265
:070F8700C292C297D2922230
:0A0F7D00120F877F887E13020E8A90
:100E1300E4FEC297FDEF30E704D2958002C295EF5E
:100E230025E0FFD2970000EE25E0FE3096010EC2CA
:090E33009700000DBD08DEAF06BA
:010E3C002293
:100F5200C2922096FD7F30120E132096FDD292226D
:100ECC00D2927F017E00120EEAC2927F017E001246
:0E0EDC000EEAD2927F297E00120EEA020F5219
:100F4000AC05C2922096FD120E13AF04120E13D2FE
:020F50009222EB
:060DB5008B658A66896768
:100DBB00EF4440FFC2922096FD120E13E4FCECC3ED
:100DCB0095685015AB65AA66A9678C82758300126E
:0B0DDB00090FFF120E130C80E5D292EE
:010DE60022EA
:0B0F7200C2922096FD120E13D29222B4
:100F1800EF4480FFC2922096FD120E13E4FF120EDA
:030F280013D2924F
:010F2B0022A3
:060D81008B738A74897572
:100D8700EF44C0FFC2922096FD120E13E4FCECC3A1
:100D970095765017E4FF120E13AB73AA74A9758CDE
:0D0DA70082758300EF12094E0C80E3D2929A
:010DB400221C
:100F2C00EF44C0FFC2922096FD120E13E4FF120E86
:030F3C0013D2923B
:010F3F00228F
:10097000AD107F0C120F40AD117F0B120F40AD1266
:100980007F0C120F40AD137F0D120F40AD147F0E80
:10099000120F40AD157F0F120F40AD167F10120FD2
:1009A00040AD177F11120F40AD187F12120F40ADEE
:1009B000197F13120F40AD1A7F14120F40AD1B7F29
:1009C0000A120F40AD1C7F15120F40AD1D7F211282
:1009D0000F40AD1E7F22120F40AD1F7F18120F4037
:1009E000AD207F19120F40AD217F1A120F40AD22AA
:1009F0007F1B120F40AD237F1C120F40AD247F1DC3
:100A0000120F40AD257F23120F40AD267F24120F19
:100A100040AD277F25120F40AD287F26120F40AD35
:100A2000297F29120F40AD2A7F2C120F40AD2B7F5A
:100A30002D120F40AD2C7F2E120F40AD2DE4FF1272
:100A40000F40AD2E7F02120F40AD2F7F07120F40D7
:100A5000AD307F08120F40AD317F09120F40AD322B
:050A60007F06020F40BB
:100EAD008D637F3F120F408563687F3F120DB57FC5
:0F0EBD0035120F723093FD2093FD7F3B020F72B1
:050F8E007F34020F7228
:060B32008B698A6A896BE1
:100B3800AB6CAA6DA96E1208F625E025E0FB7F34A0
:100B4800120F727F027E00120E8A3093117F027E8E
:100B580000120E8A1BEBC3940150EF7F00227F3BEB
:100B6800120F2CEF547F605C7F3F120F188F71AB10
:100B78006CAA6DA96E1208F6FFE571D39F5032ABCF
:100B880069AA6AA96B8571767F3F120D81AB6CAA41
:100B98006DA96EE57112093C7B007A00796F757654
:100BA800027F3F120D817F3A120F72E5705480FF69
:100BB80022AB6CAA6DA96EE57112093C7F3A120F3F
:060BC800727F00227F0095
:010BCE002204
:100D4A007F01EF602FEF601DD2A50000C2A57F5082
:100D5A007E00120F07D2A57F097E00120F07A2A5F7
:100D6A00E433FF80E07F407E00120F07A2A5B3E4C0
:060D7A0033FF80CED2A57C
:010D80002250
:040F03007F287E00C5
:100F0700D3EF9400EE94004007EF1F70F31E80F0BC
:010F170022B7
:020E3D00AD07FF
:100E3F007B08D2A50000C2A50000000000ED1392B0
:100E4F00A57F097E00120F07EDC313FDDBE4D2A5CA
:070E5F007F017E00020F0776
:100DE700E4FD7C08D2A50000EDC313FDC2A50000F9
:100DF7000000D2A50000000030A5034305807F094D
:0B0E07007E00120F07DCDDD2A5AF0556
:010E120022BD
:100E6600120D4A7FCC120E3D7FBE120E3D120DE7CB
:100E76008F33120DE78F34120D4A7FCC120E3D7F51
:040E860044020E3DD7
:100A6500E4FFE534D3947F400DE534F404F534E533
:100A750033F404F5330FE534540FC454F0FEE53375
:100A850054F0FDC4540F4EF54F75F06484F54EE5F2
:100A95004F75F0648485F04DE54D75F00A84F54B8E
:100AA500E54D75F00A8485F04AE533540FB410001E
:100AB5005070900ABEF8282873020B24020B2202FC
:100AC5000B20020B1B020B16020B14020B0F020B61
:100AD5000D020B08020B03020B01020AFC020AF7C6
:100AE500020AF5020AF0020AF0800075490980320F
:100AF5008000754908802B75490780268000754957
:100B050006801F754905801A800075490480138089
:100B150000754903800C75490280078002800075C5
:0C0B25004901EF6004754C1122754C2250
:010B310022A1
:100D0C00E4FD7580C6C2A0120F03D2A0743525492C
:100D1C00F8E6F580C2A1120F03D2A1743F254AF860
:100D2C00E6F580C2A2120F03D2A27435254BF8E669
:0D0D3C00F580C2A3120F03D2A30DBD03C5A5
:010D49002287
:100C5B00E4F551F55278537C00FD7BFF7A0F7962F6
:100C6B00FE7F081208D0785B7C007D007BFF7A0F3B
:100C7B00796A7E007F081208D0120F7D120ECC12FB
:100C8B0009707B007A0079087568087F3E120DB5F4
:100C9B007F707E17120E8A120E66120A657FF47E23
:100CAB0001120F07120D0C7B007A0079497D04129B
:040CBB000EAD80E317
:03000000020BCF21
:0C0BCF00787FE4F6D8FD758176020C16E4
:10080000E709F608DFFA8046E709F208DFFA803EDA
:1008100088828C83E709F0A3DFFA8032E309F608C7
:10082000DFFA8078E309F208DFFA807088828C832F
:10083000E309F0A3DFFA806489828A83E0A3F608E3
:10084000DFFA805889828A83E0A3F208DFFA804CBD
:1008500080D280FA80C680D4806980F28033801094
:1008600080A680EA809A80A880DA80E280CA8033FD
:1008700089828A83ECFAE493A3C8C582C8CCC58375
:10088000CCF0A3C8C582C8CCC583CCDFE9DEE78045
:100890000D89828A83E493A3F608DFF9ECFAA9F0C4
:1008A000EDFB2289828A83ECFAE0A3C8C582C8CC1A
:1008B000C583CCF0A3C8C582C8CCC583CCDFEADE33
:1008C000E880DB89828A83E493A3F208DFF980CC95
:1008D00088F0EF60010E4E60C388F0ED2402B4048E
:1008E0000050B9F582EB2402B4040050AF23234535
:0608F00082239008507302
:1008F600BB010689828A83E0225002E722BBFE0200
:09090600E32289828A83E4932232
:10090F00BB010CE58229F582E5833AF583E022509D
:10091F0006E92582F8E622BBFE06E92582F8E222E7
:0D092F00E58229F582E5833AF583E4932201
:10093C00BB010689828A83F0225002F722BBFE019A
:02094C00F32294
:10094E00F8BB010DE58229F582E5833AF583E8F0DF
:10095E00225006E92582C8F622BBFE05E92582C88B
:02096E00F22273
:100BDB00020C5BE493A3F8E493A34003F68001F2C9
:100BEB0008DFF48029E493A3F85407240CC8C3331B
:100BFB00C4540F4420C8834004F456800146F6DFEA
:100C0B00E4800B0102040810204080900CBFE47EAE
:100C1B00019360BCA3FF543F30E509541FFEE493DE
:100C2B00A360010ECF54C025E060A840B8E493A3A5
:100C3B00FAE493A3F8E493A3C8C582C8CAC583CAD0
:100C4B00F0A3C8C582C8CAC583CADFE9DEE780BE88
:010D0B0000E7
:00000001FF
