:100EA1000000000000000000000000000000000041
:100D1100080860606060606060600A37C0CFA4B09E
:100D2100999282F8809020231400080010A7625B3A
:100D3100F80322F80047B610181D1CC700B2EA2AB2
:0C0D41000011598135090B060405000C57
:100DDE00E4FDFCC3ED9FEC9E50070DBD00010C80A1
:100DEE00F2E4FCFDC3ED9FEC9E50070DBD00010C1F
:020DFE0080F281
:010E000022CF
:100E3E00000000000000000000000000000000EFB5
:090E4E001F70011E144E70E82211
:070EC600C292C297D29222F2
:0A0EBC00120EC67F887E13020DDEC1
:100DB400E4FEC297FDEF30E704D2958002C295EFBE
:100DC40025E0FFD2970000EE25E0FE3096010EC22A
:090DD4009700000DBD08DEAF061A
:010DDD0022F3
:100E9100C2922096FD7F30120DB42096FDD292228F
:100E2000D2927F017E00120E3EC2927F017E00129E
:0E0E30000E3ED2927F297E00120E3E020E91DF
:100E7F00AC05C2922096FD120DB4AF04120DB4D280
:020E8F009222AD
:060D82008B5D8A5E895FB3
:100D8800EF4440FFC2922096FD120DB4E4FCECC380
:100D980095605015AB5DAA5EA95F8C8275830012C1
:0B0DA800090FFF120DB40C80E5D29281
:010DB300221D
:0B0EB100C2922096FD120DB4D29222D6
:100E5700EF4480FFC2922096FD120DB4E4FF120DFD
:030E6700B4D29270
:010E6A002265
:060D4E008B658A668967CF
:100D5400EF44C0FFC2922096FD120DB4E4FCECC334
:100D640095685017E4FF120DB4AB65AA66A9678CA9
:0D0D740082758300EF12094E0C80E3D292CD
:010D8100224F
:100E6B00EF44C0FFC2922096FD120DB4E4FF120DA9
:030E7B00B4D2925C
:010E7E002251
:1009C500AD147F0C120E7FAD157F0B120E7FAD1689
:1009D5007F0C120E7FAD177F0D120E7FAD187F0EA7
:1009E500120E7FAD197F0F120E7FAD1A7F10120EFA
:1009F5007FAD1B7F11120E7FAD1C7F12120E7FADD6
:100A05001D7F13120E7FAD1E7F14120E7FAD1F7F4B
:100A15000A120E7FAD207F15120E7FAD217F2112A8
:100A25000E7FAD227F22120E7FAD237F18120E7F1F
:100A3500AD247F19120E7FAD257F1A120E7FAD26CC
:100A45007F1B120E7FAD277F1C120E7FAD287F1DE9
:100A5500120E7FAD297F23120E7FAD2A7F24120E41
:100A65007FAD2B7F25120E7FAD2C7F26120E7FAD1D
:100A75002D7F29120E7FAD2E7F2C120E7FAD2F7F7D
:100A85002D120E7FAD307F2E120E7FAD31E4FF1299
:100A95000E7FAD327F02120E7FAD337F07120E7FC0
:100AA500AD347F08120E7FAD357F09120E7FAD364E
:050AB5007F06020E7F28
:100E01008D5B7F3F120E7F855B607F3F120D827F7E
:0F0E110035120EB13093FD2093FD7F3B020EB1E1
:050ECD007F34020EB1AC
:060BA7008B5B8A5C895D96
:100BAD00AB5EAA5FA9601208F625E025E0FB7F3455
:100BBD00120EB17F027E00120DDE3093117F027E88
:100BCD0000120DDE1BEBC3940150EF7F00227F3B23
:100BDD00120E6BEF547F605C7F3F120E578F63AB2D
:100BED005EAA5FA9601208F6FFE563D39F5032AB92
:100BFD005BAA5CA95D8563687F3F120D4EAB5EAA53
:100C0D005FA960E56312093C7B007A007961756824
:100C1D00027F3F120D4E7F3A120EB1E5625480FFF6
:100C2D0022AB5EAA5FA960E56312093C7F3A120E02
:060C3D00B17F00227F00E0
:010C4300228E
:100CD00074372511F8E6F580C2A37F507E00120D0F
:100CE000DED2A374372544F8E6F580C2A0120DDEEB
:100CF000D2A074372542F8E6F580C2A1120DDED2EB
:100D0000A174372513F8E6F580C2A2120DDED2A237
:010D100022C0
:100ABA00754908E4F54A784B7C00FD7BFF7A0E798C
:100ACA00A1FE7F081208D078537C007D007BFF7A54
:100ADA000E79A97E007F081208D0120EBC120E20D1
:100AEA001209C57B007A0079087560087F3E120DED
:100AFA0082D2A1D2A2D2A3754C01754D017B007A94
:100B0A0000794B7D08120E017F707E17120DDE757B
:100B1A005E00755F007560497B007A007953120B9D
:100B2A00A7EF6073E553B4010B74022546F546E45A
:100B3A003545F545E553B4110B74032548F548E4EA
:100B4A003547F547AE45AF467C007D0A1209708EDF
:100B5A00108F11AE45AF467C007D0A1209708C12C7
:100B6A008D13AE47AF487C007D0A1209708E418F03
:100B7A0042AE47AF487C007D0A1209708C438D440F
:100B8A00C3E5469463E54594004005E4F545F5461A
:0D0B9A007FE87E03120DDE120CD0020B1955
:03000000020C44AB
:0C0C4400787FE4F6D8FD758168020C8B07
:10080000E709F608DFFA8046E709F208DFFA803EDA
:1008100088828C83E709F0A3DFFA8032E309F608C7
:10082000DFFA8078E309F208DFFA807088828C832F
:10083000E309F0A3DFFA806489828A83E0A3F608E3
:10084000DFFA805889828A83E0A3F208DFFA804CBD
:1008500080D280FA80C680D4806980F28033801094
:1008600080A680EA809A80A880DA80E280CA8033FD
:1008700089828A83ECFAE493A3C8C582C8CCC58375
:10088000CCF0A3C8C582C8CCC583CCDFE9DEE78045
:100890000D89828A83E493A3F608DFF9ECFAA9F0C4
:1008A000EDFB2289828A83ECFAE0A3C8C582C8CC1A
:1008B000C583CCF0A3C8C582C8CCC583CCDFEADE33
:1008C000E880DB89828A83E493A3F208DFF980CC95
:1008D00088F0EF60010E4E60C388F0ED2402B4048E
:1008E0000050B9F582EB2402B4040050AF23234535
:0608F00082239008507302
:1008F600BB010689828A83E0225002E722BBFE0200
:09090600E32289828A83E4932232
:10090F00BB010CE58229F582E5833AF583E022509D
:10091F0006E92582F8E622BBFE06E92582F8E222E7
:0D092F00E58229F582E5833AF583E4932201
:10093C00BB010689828A83F0225002F722BBFE019A
:02094C00F32294
:10094E00F8BB010DE58229F582E5833AF583E8F0DF
:10095E00225006E92582C8F622BBFE05E92582C88B
:02096E00F22273
:10097000BC000BBE0029EF8DF084FFADF022E4CC6B
:10098000F875F008EF2FFFEE33FEEC33FCEE9DEC34
:10099000984005FCEE9DFE0FD5F0E9E4CEFD22ED7A
:1009A000F8F5F0EE8420D21CFEADF075F008EF2FC4
:1009B000FFED33FD4007985006D5F0F222C398FDB5
:0509C0000FD5F0EA2252
:100C5000020ABAE493A3F8E493A34003F68001F2F6
:100C600008DFF48029E493A3F85407240CC8C333A5
:100C7000C4540F4420C8834004F456800146F6DF74
:100C8000E4800B0102040810204080900D11E47EE6
:100C9000019360BCA3FF543F30E509541FFEE49369
:100CA000A360010ECF54C025E060A840B8E493A330
:100CB000FAE493A3F8E493A3C8C582C8CAC583CA5B
:100CC000F0A3C8C582C8CAC583CADFE9DEE780BE13
:010D4D0000A5
:00000001FF
