:1003C200082160606060606060602023290008008E
:1003D20010A7625BF80322F80047B610181D1CC76D
:1003E20000B2EA2A0011598135090B06040500FF03
:10041D00E4FDFCC3ED9FEC9E50070DBD00010C806B
:10042D00F2E4FCFDC3ED9FEC9E50070DBD00010CE9
:02043D0080F24B
:01043F00229A
:10045E00000000000000000000000000000000EF9F
:09046E001F70011E144E70E822FB
:0704F500C295C292D29522CC
:0A04E3001204F57F887E1302041D49
:1003F300E4FEC292FDEF30E704D2978002C297EF8A
:1004030025E0FFD2920000EE25E0FE3096010EC2F9
:090413009200000DBD08DEAF06E9
:01041C0022BD
:1004C800C2952096FD7F301203F32096FDD2952227
:10044000D2957F017E0012045EC2957F017E00126C
:0E045000045ED2957F297E0012045E0204C86D
:1004B600AC05C2952096FD1203F3AF041203F3D2E6
:0204C60095227D
:060390008B0A8A0B890CA8
:10039600EF4440FFC2952096FD1203F3E4FCECC344
:1003A600950D5015AB0AAA0BA90C8C827583001209
:0B03B600025DFF1203F30C80E5D295FE
:0103C1002219
:0B04D800C2952096FD1203F3D295227E
:10048E00EF4480FFC2952096FD1203F3E4FF1203A2
:03049E00F3D29501
:0104A1002238
:06035C008B128A138914C4
:10036200EF44C0FFC2952096FD1203F3E4FCECC3F8
:1003720095155017E4FF1203F3AB12AA13A9148CBC
:0D03820082758300EF12029C0C80E3D2957F
:01038F00224B
:1004A200EF44C0FFC2952096FD1203F3E4FF12034E
:0304B200F3D295ED
:0104B5002224
:10002600AD297F0C1204B6AD2A7F0B1204B6AD2B98
:100036007F0C1204B6AD2C7F0D1204B6AD2D7F0ECB
:100046001204B6AD2E7F0F1204B6AD2F7F10120428
:10005600B6AD307F111204B6AD317F121204B6ADC3
:10006600327F131204B6AD337F141204B6AD347F5B
:100076000A1204B6AD357F151204B6AD367F2112CD
:1000860004B6AD377F221204B6AD387F181204B617
:10009600AD397F191204B6AD3A7F1A1204B6AD3BDC
:1000A6007F1B1204B6AD3C7F1C1204B6AD3D7F1D0E
:1000B6001204B6AD3E7F231204B6AD3F7F24120470
:1000C600B6AD407F251204B6AD417F261204B6AD0B
:1000D600427F291204B6AD437F2C1204B6AD447F8D
:1000E6002D1204B6AD457F2E1204B6AD46E4FF12BE
:1000F60004B6AD477F021204B6AD487F071204B6B8
:10010600AD497F081204B6AD4A7F091204B6AD4B5D
:050116007F060204B6A3
:100003008D087F3F1204B685080D7F3F1203907F52
:0F001300351204D83090FD2090FD7F3B0204D8B9
:0504FC007F340204D86A
:06011B008B088A09890A25
:10012100AB0BAA0CA90D12024425E025E0FB7F349C
:100131001204D87F027E0012041D3090117F027ECE
:100141000012041D1BEBC3940150EF7F00227F3B83
:100151001204A2EF547F605C7F3F12048E8F10ABBC
:100161000BAA0CA90D120244FFE510D39F5032AB2C
:1001710008AA09A90A8510157F3F12035CAB0BAAD7
:100181000CA90DE51012028A7B007A00790E751513
:10019100027F3F12035C7F3A1204D8E50F5480FFBF
:1001A10022AB0BAA0CA90DE51012028A7F3A1204A8
:0601B100D87F00227F0050
:0101B7002225
:10047700759858758921758DFD758BFDD28EC2AB28
:07048700D2ACD2BCD2AF22BF
:03002300020322B3
:10032200C0E0C083C082C0D075D018309818AF4CDE
:10033200EF3395E0FE74002FF58274003EF583E5FD
:1003420099F0C298054CE54CB42006754C00752016
:0A03520001D0D0D082D083D0E03279
:0804ED008F993099FDC299229C
:1002BE001204771204E31204401200267B007A0027
:1002CE007921750D087F3E120390D2B5E4F54CF5F9
:1002DE0020E520B4010E7B017A0079007D2012000A
:1002EE0003E4F520750B00750C00750D207B017A6B
:1002FE0000792012011BEF6017C2B5E4FE74202EA8
:10030E00F582E43400F583E0FF1204ED0EBE20ED1D
:04031E00D2B580BD17
:030000000201B842
:0C01B800787FE4F6D8FD75814C0201FF51
:10024400BB010689828A83E0225002E722BBFE02B8
:09025400E32289828A83E49322EB
:10025D00BB010CE58229F582E5833AF583E0225056
:10026D0006E92582F8E622BBFE06E92582F8E222A0
:0D027D00E58229F582E5833AF583E49322BA
:10028A00BB010689828A83F0225002F722BBFE0153
:02029A00F3224D
:10029C00F8BB010DE58229F582E5833AF583E8F098
:1002AC00225006E92582C8F622BBFE05E92582C844
:0202BC00F2222C
:1001C4000202BEE493A3F8E493A34003F68001F291
:1001D40008DFF48029E493A3F85407240CC8C3333C
:1001E400C4540F4420C8834004F456800146F6DF0B
:1001F400E4800B01020408102040809003C2E47ED6
:10020400019360BCA3FF543F30E509541FFEE493FF
:10021400A360010ECF54C025E060A840B8E493A3C6
:10022400FAE493A3F8E493A3C8C582C8CAC583CAF1
:10023400F0A3C8C582C8CAC583CADFE9DEE780BEA9
:0103F200000A
:00000001FF
