:100EA800000000000000000000000000000000003A
:100D1800080860606060606060600A37C0CFA4B097
:100D2800999282F8809020231400080010A7625B33
:100D3800F80322F80047B610181D1CC700B2EA2AAB
:0C0D48000011598135090B060405000C50
:100DE500E4FDFCC3ED9FEC9E50070DBD00010C809A
:100DF500F2E4FCFDC3ED9FEC9E50070DBD00010C18
:020E050080F279
:010E070022C8
:100E4500000000000000000000000000000000EFAE
:090E55001F70011E144E70E8220A
:070ECD00C292C297D29222EB
:0A0EC300120ECD7F887E13020DE5AC
:100DBB00E4FEC297FDEF30E704D2958002C295EFB7
:100DCB0025E0FFD2970000EE25E0FE3096010EC223
:090DDB009700000DBD08DEAF0613
:010DE40022EC
:100E9800C2922096FD7F30120DBB2096FDD2922281
:100E2700D2927F017E00120E45C2927F017E001290
:0E0E37000E45D2927F297E00120E45020E98C3
:100E8600AC05C2922096FD120DBBAF04120DBBD26B
:020E96009222A6
:060D89008B5B8A5C895DB2
:100D8F00EF4440FFC2922096FD120DBBE4FCECC372
:100D9F00955E5015AB5BAA5CA95D8C8275830012C2
:0B0DAF00090FFF120DBB0C80E5D29273
:010DBA002216
:0B0EB800C2922096FD120DBBD29222C8
:100E5E00EF4480FFC2922096FD120DBBE4FF120DEF
:030E6E00BBD29262
:010E7100225E
:060D55008B638A648965CE
:100D5B00EF44C0FFC2922096FD120DBBE4FCECC326
:100D6B0095665017E4FF120DBBAB63AA64A9658CA3
:0D0D7B0082758300EF12094E0C80E3D292C6
:010D88002248
:100E7200EF44C0FFC2922096FD120DBBE4FF120D9B
:030E8200BBD2924E
:010E8500224A
:1009C500AD147F0C120E86AD157F0B120E86AD167B
:1009D5007F0C120E86AD177F0D120E86AD187F0E99
:1009E500120E86AD197F0F120E86AD1A7F10120EEC
:1009F50086AD1B7F11120E86AD1C7F12120E86ADC1
:100A05001D7F13120E86AD1E7F14120E86AD1F7F3D
:100A15000A120E86AD207F15120E86AD217F21129A
:100A25000E86AD227F22120E86AD237F18120E860A
:100A3500AD247F19120E86AD257F1A120E86AD26BE
:100A45007F1B120E86AD277F1C120E86AD287F1DDB
:100A5500120E86AD297F23120E86AD2A7F24120E33
:100A650086AD2B7F25120E86AD2C7F26120E86AD08
:100A75002D7F29120E86AD2E7F2C120E86AD2F7F6F
:100A85002D120E86AD307F2E120E86AD31E4FF128B
:100A95000E86AD327F02120E86AD337F07120E86AB
:100AA500AD347F08120E86AD357F09120E86AD3640
:050AB5007F06020E8621
:100E08008D597F3F120E8685595E7F3F120D897F6F
:0F0E180035120EB83093FD2093FD7F3B020EB8CC
:050ED4007F34020EB89E
:060BAE008B598A5A895B95
:100BB400AB5CAA5DA95E1208F625E025E0FB7F3454
:100BC400120EB87F027E00120DE53093117F027E73
:100BD40000120DE51BEBC3940150EF7F00227F3B15
:100BE400120E72EF547F605C7F3F120E5E8F61AB1A
:100BF4005CAA5DA95E1208F6FFE561D39F5032AB93
:100C040059AA5AA95B8561667F3F120D55AB5CAA50
:100C14005DA95EE56112093C7B007A00795F756627
:100C2400027F3F120D557F3A120EB8E5605480FFE3
:100C340022AB5CAA5DA95EE56112093C7F3A120E03
:060C4400B87F00227F00D2
:010C4A002287
:100CD70074372511F8E6F580C2A37F507E00120D08
:100CE700E5D2A374372544F8E6F580C2A0120DE5D6
:100CF700D2A074372542F8E6F580C2A1120DE5D2DD
:100D0700A174372513F8E6F580C2A2120DE5D2A229
:010D170022B9
:100ABA00E4F547F54878497C00FD7BFF7A0E79A872
:100ACA00FE7F081208D078517C007D007BFF7A0EE9
:100ADA0079B07E007F081208D0120EC3120E2712B8
:100AEA0009C57B007A007908755E087F3E120D8978
:100AFA00D2A1D2A2D2A3754A01754B017B007A001A
:100B0A0079497D08120E087F707E17120DE5755C13
:100B1A0000755D00755E477B007A007951120BAE55
:100B2A00EF607BE552B401080546E54670020545CB
:100B3A00E553B40108E546154670021545AE45AFC2
:100B4A00467C037DE81209708E108F11AE45AF46C0
:100B5A007C037DE8120970AA04AB057D647C00AFB2
:100B6A0003AE021209708E128F137D647C00AF03EC
:100B7A00AE02120970AA04AB057D0A7C00AF03AE6F
:100B8A00021209708E418F427D0A7C00AF03AE02C9
:100B9A001209708C438D447FE87E03120DE5120C16
:040BAA00D7020B184B
:03000000020C4BA4
:0C0C4B00787FE4F6D8FD758166020C92FB
:10080000E709F608DFFA8046E709F208DFFA803EDA
:1008100088828C83E709F0A3DFFA8032E309F608C7
:10082000DFFA8078E309F208DFFA807088828C832F
:10083000E309F0A3DFFA806489828A83E0A3F608E3
:10084000DFFA805889828A83E0A3F208DFFA804CBD
:1008500080D280FA80C680D4806980F28033801094
:1008600080A680EA809A80A880DA80E280CA8033FD
:1008700089828A83ECFAE493A3C8C582C8CCC58375
:10088000CCF0A3C8C582C8CCC583CCDFE9DEE78045
:100890000D89828A83E493A3F608DFF9ECFAA9F0C4
:1008A000EDFB2289828A83ECFAE0A3C8C582C8CC1A
:1008B000C583CCF0A3C8C582C8CCC583CCDFEADE33
:1008C000E880DB89828A83E493A3F208DFF980CC95
:1008D00088F0EF60010E4E60C388F0ED2402B4048E
:1008E0000050B9F582EB2402B4040050AF23234535
:0608F00082239008507302
:1008F600BB010689828A83E0225002E722BBFE0200
:09090600E32289828A83E4932232
:10090F00BB010CE58229F582E5833AF583E022509D
:10091F0006E92582F8E622BBFE06E92582F8E222E7
:0D092F00E58229F582E5833AF583E4932201
:10093C00BB010689828A83F0225002F722BBFE019A
:02094C00F32294
:10094E00F8BB010DE58229F582E5833AF583E8F0DF
:10095E00225006E92582C8F622BBFE05E92582C88B
:02096E00F22273
:10097000BC000BBE0029EF8DF084FFADF022E4CC6B
:10098000F875F008EF2FFFEE33FEEC33FCEE9DEC34
:10099000984005FCEE9DFE0FD5F0E9E4CEFD22ED7A
:1009A000F8F5F0EE8420D21CFEADF075F008EF2FC4
:1009B000FFED33FD4007985006D5F0F222C398FDB5
:0509C0000FD5F0EA2252
:100C5700020ABAE493A3F8E493A34003F68001F2EF
:100C670008DFF48029E493A3F85407240CC8C3339E
:100C7700C4540F4420C8834004F456800146F6DF6D
:100C8700E4800B0102040810204080900D18E47ED8
:100C9700019360BCA3FF543F30E509541FFEE49362
:100CA700A360010ECF54C025E060A840B8E493A329
:100CB700FAE493A3F8E493A3C8C582C8CAC583CA54
:100CC700F0A3C8C582C8CAC583CADFE9DEE780BE0C
:010D5400009E
:00000001FF
