:100D69000102030405060708000000000000000056
:100C4B00080860606060606060602023100008002E
:100C5B0010A7625BF80322F80047B610181D1CC7DB
:100C6B0000B2EA2A0011598135090B060405000C64
:100CA600E4FDFCC3ED9FEC9E50070DBD00010C80DA
:100CB600F2E4FCFDC3ED9FEC9E50070DBD00010C58
:020CC60080F2BA
:010CC8002209
:100D0600000000000000000000000000000000EFEE
:090D16001F70011E144E70E8224A
:070D8E00C292C297D292222B
:0A0D8400120D8E7F887E13020CA66C
:100C7C00E4FEC297FDEF30E704D2958002C295EFF7
:100C8C0025E0FFD2970000EE25E0FE3096010EC263
:090C9C009700000DBD08DEAF0653
:010CA500222C
:100D5900C2922096FD7F30120C7C2096FDD2922201
:100CE800D2927F017E00120D06C2927F017E001211
:0E0CF8000D06D2927F297E00120D06020D59C4
:100D4700AC05C2922096FD120C7CAF04120C7CD22B
:020D57009222E6
:060C19008B478A4889495F
:100C1F00EF4440FFC2922096FD120C7CE4FCECC323
:100C2F00954A5015AB47AA48A9498C827583001283
:0B0C3F00090FFF120C7C0C80E5D29224
:010C4A002287
:0B0D7900C2922096FD120C7CD2922248
:100D1F00EF4480FFC2922096FD120C7CE4FF120C70
:030D2F007CD292E1
:010D3200229E
:060BE5008B558A5689576A
:100BEB00EF44C0FFC2922096FD120C7CE4FCECC3D8
:100BFB0095585017E4FF120C7CAB55AA56A9578C8D
:0D0C0B0082758300EF12094E0C80E3D29237
:010C180022B9
:100D3300EF44C0FFC2922096FD120C7CE4FF120C1C
:030D43007CD292CD
:010D4600228A
:10097000AD107F0C120D47AD117F0B120D47AD125C
:100980007F0C120D47AD137F0D120D47AD147F0E76
:10099000120D47AD157F0F120D47AD167F10120DCA
:1009A00047AD177F11120D47AD187F12120D47ADDD
:1009B000197F13120D47AD1A7F14120D47AD1B7F1F
:1009C0000A120D47AD1C7F15120D47AD1D7F211278
:1009D0000D47AD1E7F22120D47AD1F7F18120D4728
:1009E000AD207F19120D47AD217F1A120D47AD22A0
:1009F0007F1B120D47AD237F1C120D47AD247F1DB9
:100A0000120D47AD257F23120D47AD267F24120D11
:100A100047AD277F25120D47AD287F26120D47AD24
:100A2000297F29120D47AD2A7F2C120D47AD2B7F50
:100A30002D120D47AD2C7F2E120D47AD2DE4FF1268
:100A40000D47AD2E7F02120D47AD2F7F07120D47C8
:100A5000AD307F08120D47AD317F09120D47AD3221
:050A60007F06020D47B6
:100CC9008D457F3F120D4785454A7F3F120C197F9D
:0F0CD90035120D793093FD2093FD7F3B020D798D
:050D95007F34020D791E
:060A65008B4B8A4C894D09
:100A6B00AB4EAA4FA9501208F625E025E0FB7F34C8
:100A7B00120D797F027E00120CA63093117F027E3D
:100A8B0000120CA61BEBC3940150EF7F00227F3B9F
:100A9B00120D33EF547F605C7F3F120D1F8F53ABF2
:100AAB004EAA4FA9501208F6FFE553D39F5032AB15
:100ABB004BAA4CA94D8553587F3F120BE5AB4EAA61
:100ACB004FA950E55312093C7B007A0079517558B8
:100ADB00027F3F120BE57F3A120D79E5525480FFEE
:100AEB0022AB4EAA4FA950E55312093C7F3A120D87
:060AFB00797F00227F005C
:010B010022D1
:100B8E00E4F533F53478357C00FD7BFF7A0D796919
:100B9E00FE7F081208D0783D7C007D007BFF7A0D29
:100BAE0079717E007F081208D0120D84120CE812A3
:100BBE0009707B007A007908754A087F3E120C197D
:100BCE007F707E17120CA67533087B007A0079357C
:070BDE00AD33120CC980F0D9
:03000000020B02EE
:0C0B0200787FE4F6D8FD758158020B499D
:10080000E709F608DFFA8046E709F208DFFA803EDA
:1008100088828C83E709F0A3DFFA8032E309F608C7
:10082000DFFA8078E309F208DFFA807088828C832F
:10083000E309F0A3DFFA806489828A83E0A3F608E3
:10084000DFFA805889828A83E0A3F208DFFA804CBD
:1008500080D280FA80C680D4806980F28033801094
:1008600080A680EA809A80A880DA80E280CA8033FD
:1008700089828A83ECFAE493A3C8C582C8CCC58375
:10088000CCF0A3C8C582C8CCC583CCDFE9DEE78045
:100890000D89828A83E493A3F608DFF9ECFAA9F0C4
:1008A000EDFB2289828A83ECFAE0A3C8C582C8CC1A
:1008B000C583CCF0A3C8C582C8CCC583CCDFEADE33
:1008C000E880DB89828A83E493A3F208DFF980CC95
:1008D00088F0EF60010E4E60C388F0ED2402B4048E
:1008E0000050B9F582EB2402B4040050AF23234535
:0608F00082239008507302
:1008F600BB010689828A83E0225002E722BBFE0200
:09090600E32289828A83E4932232
:10090F00BB010CE58229F582E5833AF583E022509D
:10091F0006E92582F8E622BBFE06E92582F8E222E7
:0D092F00E58229F582E5833AF583E4932201
:10093C00BB010689828A83F0225002F722BBFE019A
:02094C00F32294
:10094E00F8BB010DE58229F582E5833AF583E8F0DF
:10095E00225006E92582C8F622BBFE05E92582C88B
:02096E00F22273
:100B0E00020B8EE493A3F8E493A34003F68001F264
:100B1E0008DFF48029E493A3F85407240CC8C333E8
:100B2E00C4540F4420C8834004F456800146F6DFB7
:100B3E00E4800B0102040810204080900C4BE47EF0
:100B4E00019360BCA3FF543F30E509541FFEE493AC
:100B5E00A360010ECF54C025E060A840B8E493A373
:100B6E00FAE493A3F8E493A3C8C582C8CAC583CA9E
:100B7E00F0A3C8C582C8CAC583CADFE9DEE780BE56
:010C7B000078
:00000001FF
