:10022B006162636465666768696A6B6C6D6E6F703B
:10023B007172737475767778797A41424344000012
:03024B00000000B0
:0500030012001A7F70DD
:10000800E4FDFCC3ED9FEC9E50070DBD00010C8084
:01001800F2F5
:0100190022C4
:10024E00759850438920758DFD758BFDD28EC2AB8E
:07025E00D2ACD2BCD2AF22EA
:08001A008F993099FDC2992273
:100206008B2D8A2E892FAB2DAA2EA92F12011C60A9
:1002160013052FE52F7002052E14F912011CFF128B
:05022600001A80E22235
:0300230002026571
:1002650030980DC298859932753401753401D2A53F
:010275003256
:10013500E4F508F509780A7C00FD7BFF7A02794A27
:10014500FE7F041200F6D2A5750EFF751102E4F5C7
:100155001212024EF580C2A2FB740F2BF8A6030BF8
:10016500BB1EF67FA312001A7F3A12001A7F0212F5
:10017500001A7F707E171200087FA712001A7F7A77
:1001850012001AE4FF1200037FAB12001A7FBA12A5
:10019500001A7F0A1200037FA912001A7F9A120023
:1001A5001AE4FF12001A0F12000312000875E13C51
:1001B50020B63D800320B6097F0A7E001200088024
:1001C500F4C2A27BFF7A02792B120206D2A27FEE3D
:1001D5007E02120008E4FB740F2BF8E6FF12001AEA
:1001E5000BBB17F37FEE7E021200087F6612001A22
:1001F5007FC27E01120008D2A27F641E1200088011
:01020500AC4C
:0300000002027683
:0C027600787FE4F6D8FD75813402013574
:10002600E709F608DFFA8046E709F208DFFA803EBC
:1000360088828C83E709F0A3DFFA8032E309F608A9
:10004600DFFA8078E309F208DFFA807088828C8311
:10005600E309F0A3DFFA806489828A83E0A3F608C5
:10006600DFFA805889828A83E0A3F208DFFA804C9F
:1000760080D280FA80C680D4806980F28033801076
:1000860080A680EA809A80A880DA80E280CA8033DF
:1000960089828A83ECFAE493A3C8C582C8CCC58357
:1000A600CCF0A3C8C582C8CCC583CCDFE9DEE78027
:1000B6000D89828A83E493A3F608DFF9ECFAA9F0A6
:1000C600EDFB2289828A83ECFAE0A3C8C582C8CCFC
:1000D600C583CCF0A3C8C582C8CCC583CCDFEADE15
:1000E600E880DB89828A83E493A3F208DFF980CC77
:1000F60088F0EF60010E4E60C388F0ED2402B40470
:100106000050B9F582EB2402B4040050AF23234516
:06011600822390007673C5
:10011C00BB010689828A83E0225002E722BBFE02E1
:09012C00E32289828A83E4932214
:00000001FF
