:040DAF000000000040
:100BF600080860606060606060600A33C0CFA4B0BF
:100C0600999282F8809020231000080010A7625B5A
:100C1600F80322F80047B610181D1CC700B2EA2ACE
:0C0C26000011598135090B060405000C73
:100CEA00E4FDFCC3ED9FEC9E50070DBD00010C8096
:100CFA00F2E4FCFDC3ED9FEC9E50070DBD00010C14
:020D0A0080F275
:010D0C0022C4
:100D2B00000000000000000000000000000000EFC9
:090D3B001F70011E144E70E82225
:070DA300C292C297D2922216
:0A0D9900120DA37F887E13020CEAFE
:100C9900E4FEC297FDEF30E704D2958002C295EFDA
:100CA90025E0FFD2970000EE25E0FE3096010EC246
:090CB9009700000DBD08DEAF0636
:010CC200220F
:100D7E00C2922096FD7F30120C992096FDD29222BF
:100D0D00D2927F017E00120D2BC2927F017E0012C6
:0E0D1D000D2BD2927F297E00120D2B020D7E2F
:100D6C00AC05C2922096FD120C99AF04120C99D2CC
:020D7C009222C1
:060C67008B448A4589461A
:100C6D00EF4440FFC2922096FD120C99E4FCECC3B8
:100C7D0095475015AB44AA45A9468C827583001241
:0B0C8D00090FFF120C990C80E5D292B9
:010C98002239
:0B0D8E00C2922096FD120C99D2922216
:100D4400EF4480FFC2922096FD120C99E4FF120C2E
:030D540099D2929F
:010D57002279
:060C33008B528A53895424
:100C3900EF44C0FFC2922096FD120C99E4FCECC36C
:100C490095555017E4FF120C99AB52AA53A9548C2D
:0D0C590082758300EF12094E0C80E3D292E9
:010C6600226B
:100D5800EF44C0FFC2922096FD120C99E4FF120CDA
:030D680099D2928B
:010D6B002265
:10097000AD107F0C120D6CAD117F0B120D6CAD1212
:100980007F0C120D6CAD137F0D120D6CAD147F0E2C
:10099000120D6CAD157F0F120D6CAD167F10120D80
:1009A0006CAD177F11120D6CAD187F12120D6CAD6E
:1009B000197F13120D6CAD1A7F14120D6CAD1B7FD5
:1009C0000A120D6CAD1C7F15120D6CAD1D7F21122E
:1009D0000D6CAD1E7F22120D6CAD1F7F18120D6CB9
:1009E000AD207F19120D6CAD217F1A120D6CAD2256
:1009F0007F1B120D6CAD237F1C120D6CAD247F1D6F
:100A0000120D6CAD257F23120D6CAD267F24120DC7
:100A10006CAD277F25120D6CAD287F26120D6CADB5
:100A2000297F29120D6CAD2A7F2C120D6CAD2B7F06
:100A30002D120D6CAD2C7F2E120D6CAD2DE4FF121E
:100A40000D6CAD2E7F02120D6CAD2F7F07120D6C59
:100A5000AD307F08120D6CAD317F09120D6CAD32D7
:050A60007F06020D6C91
:080CC3007B007A00793E7D04FC
:100CCB008D427F3F120D6C8542477F3F120C677F31
:0F0CDB0035120D8E3093FD2093FD7F3B020D8E61
:050DAA007F34020D8EF4
:060A65008B488A49894A12
:100A6B00AB4BAA4CA94D1208F625E025E0FB7F34D1
:100A7B00120D8E7F027E00120CEA3093117F027EE4
:100A8B0000120CEA1BEBC3940150EF7F00227F3B5B
:100A9B00120D58EF547F605C7F3F120D448F50ABAB
:100AAB004BAA4CA94D1208F6FFE550D39F5032AB21
:100ABB0048AA49A94A8550557F3F120C33AB4BAA24
:100ACB004CA94DE55012093C7B007A00794E7555C7
:100ADB00027F3F120C337F3A120D8EE54F5480FF8D
:100AEB0022AB4BAA4CA94DE55012093C7F3A120D93
:060AFB008E7F00227F0047
:010B010022D1
:100B8E00E4F53D783E7C00FD7BFF7A0D79AFFE7F6C
:100B9E00041208D0120D99120D0D1209707B007AF5
:100BAE000079087547087F3E120C677F707E17121A
:100BBE000CEA20B60F753E01753F02754003754174
:100BCE0004120CC320B70F753E11753F12754013FA
:100BDE00754114120CC3E4F53EF53FF540F5417F27
:080BEE00B87E0B120CEA80CA6C
:03000000020B02EE
:0C0B0200787FE4F6D8FD758155020B49A0
:10080000E709F608DFFA8046E709F208DFFA803EDA
:1008100088828C83E709F0A3DFFA8032E309F608C7
:10082000DFFA8078E309F208DFFA807088828C832F
:10083000E309F0A3DFFA806489828A83E0A3F608E3
:10084000DFFA805889828A83E0A3F208DFFA804CBD
:1008500080D280FA80C680D4806980F28033801094
:1008600080A680EA809A80A880DA80E280CA8033FD
:1008700089828A83ECFAE493A3C8C582C8CCC58375
:10088000CCF0A3C8C582C8CCC583CCDFE9DEE78045
:100890000D89828A83E493A3F608DFF9ECFAA9F0C4
:1008A000EDFB2289828A83ECFAE0A3C8C582C8CC1A
:1008B000C583CCF0A3C8C582C8CCC583CCDFEADE33
:1008C000E880DB89828A83E493A3F208DFF980CC95
:1008D00088F0EF60010E4E60C388F0ED2402B4048E
:1008E0000050B9F582EB2402B4040050AF23234535
:0608F00082239008507302
:1008F600BB010689828A83E0225002E722BBFE0200
:09090600E32289828A83E4932232
:10090F00BB010CE58229F582E5833AF583E022509D
:10091F0006E92582F8E622BBFE06E92582F8E222E7
:0D092F00E58229F582E5833AF583E4932201
:10093C00BB010689828A83F0225002F722BBFE019A
:02094C00F32294
:10094E00F8BB010DE58229F582E5833AF583E8F0DF
:10095E00225006E92582C8F622BBFE05E92582C88B
:02096E00F22273
:100B0E00020B8EE493A3F8E493A34003F68001F264
:100B1E0008DFF48029E493A3F85407240CC8C333E8
:100B2E00C4540F4420C8834004F456800146F6DFB7
:100B3E00E4800B0102040810204080900BF6E47E46
:100B4E00019360BCA3FF543F30E509541FFEE493AC
:100B5E00A360010ECF54C025E060A840B8E493A373
:100B6E00FAE493A3F8E493A3C8C582C8CAC583CA9E
:100B7E00F0A3C8C582C8CAC583CADFE9DEE780BE56
:010C320000C1
:00000001FF
