:0300000002039365
:0C039300787FE4F6D8FD75811F0203DAC4
:1005A3006023005A00080010A7625BF80322F800DA
:1005B30047B610181D1CC700B2EA2A00115981352D
:0705C300090B0604050020EE
:1006FC00E4FDFCC3ED9FEC9E50070DBD00010C808A
:10070C00F2E4FCFDC3ED9FEC9E50070DBD00010C07
:02071C0080F269
:01071E0022B8
:10075D00000000000000000000000000000000EF9D
:09076D001F70011E144E70E822F9
:07084800C293C2B2D2932259
:0A0836001208487F887E130206FCBA
:10068100E4FEC2B2FDEF30E704D2918002C291EFE5
:1006910025E0FFD2B20000EE25E0FE3092010EC24D
:0A06A100B200000DEDB408DDAF0655
:0106AB00222C
:1007FC00C2932092FD7F301206812092FDD293226B
:10000300D2937F017E0012075DC2937F017E0012AF
:0E001300075DD2937F297E0012075D0207FC75
:0407BE00E0FD7F0CCF
:1007C200AC05C2932092FD120681AF04120681D2BB
:0207D200932270
:0B064100900086EBF0A3EAF0A3E9F0C4
:10064C00EF4440FFC2932092FD120681E4FC90001F
:10065C0089E0FFECC39F501A900086E0FBA3E0FA00
:10066C00A3E0F98C82758300120542FF1206810CFF
:04067C0080DCD293B9
:010680002257
:0B082B00C2932092FD120681D293229E
:1007D400EF4480FFC2932092FD120681E4FF1206CB
:0307E40081D2932C
:0107E70022EF
:0B05FF0090008EEBF0A3EAF0A3E9F0FF
:10060A00EF44C0FFC2932092FD120681E4FC9000E1
:10061A0091E0FFECC39F501CE4FF12068190008E0C
:10062A00E0FBA3E0FAA3E0F98C82758300EF1205E0
:06063A00810C80DAD2936E
:010640002297
:1007E800EF44C0FFC2932092FD120681E4FF120677
:0307F80081D29318
:0107FB0022DB
:1001B10090005A1207BEA3E0FD7F0B1207C2A312E3
:1001C10007BEA3E0FD7F0D1207C2A3E0FD7F0E1263
:1001D10007C2A3E0FD7F0F1207C2A3E0FD7F10124B
:1001E10007C2A3E0FD7F111207C2A3E0FD7F121237
:1001F10007C2A3E0FD7F131207C2A3E0FD7F141223
:1002010007C2A3E0FD7F0A1207C2A3E0FD7F15121A
:1002110007C2A3E0FD7F211207C2A3E0FD7F2212E6
:1002210007C2A3E0FD7F181207C2A3E0FD7F1912E8
:1002310007C2A3E0FD7F1A1207C2A3E0FD7F1B12D4
:1002410007C2A3E0FD7F1C1207C2A3E0FD7F1D12C0
:1002510007C2A3E0FD7F231207C2A3E0FD7F2412A2
:1002610007C2A3E0FD7F251207C2A3E0FD7F26128E
:1002710007C2A3E0FD7F291207C2A3E0FD7F2C1274
:1002810007C2A3E0FD7F2D1207C2A3E0FD7F2E125E
:1002910007C2A3E0FDE4FF1207C2A3E0FD7F021243
:1002A10007C2A3E0FD7F071207C2A3E0FD7F08128A
:1002B10007C2A3E0FD7F091207C2A3E0FD7F06028A
:0202C10007C272
:1006D700900084EDF07F3F1207C2E0900089F07F21
:1006E7003F1206417F3512082B7FC87E001206FC99
:0506F7007F3B02082B0F
:050856007F3402082BB5
:0B02C300900084EBF0A3EAF0A3E9F048
:1002CE00A3E0FBA3E0FAA3E0F912052925E025E05F
:1002DE00FB7F3412082B7F027E001206FC30B31116
:1002EE007F027E001206FC1BEBC3940150EF7F00D1
:1002FE00227F3B1207E8EF547F70030203907F3F8B
:10030E001207D490008CEFF0900087E0FBA3E0FA88
:10031E00A3E0F9120529FEEFD39E504A900084E027
:10032E00FBA3E0FAA3E0F990008CE0900091F07F3F
:10033E003F1205FF90008CE0FF900087E0FBA3E0EA
:10034E00FAA3E0F9EF12056F7B017A00798A90002B
:10035E00917402F07F3F1205FF7F3A12082B900036
:10036E008BE05480FF2290008CE0FF900087E0FB32
:10037E00A3E0FAA3E0F9EF12056F7F3A12082B7F84
:04038E0000227F00CA
:010392002248
:1005CA0041009300410092004100980041009400CC
:0C05DA0041009500410097004100960090
:0F080C007F017E000FBF00010EBE06F8BF18F57A
:01081B0022BA
:04077600AD07AC0619
:10077A00E4FBFAC3EB9DEA9C500A12080C0BBB007F
:04078A00010A80EFF1
:01078E002248
:0E081C00E4FEEF14FDEEC39D5004000E80F4C8
:01082A0022AB
:07084F00AE071FEE70FA2254
:10071F00E4900099F0D2C17F0A12081CC2C17FE099
:10072F0012081CD2C17F4112081C30C1FD7F140278
:02073F00084F61
:10074100E4FB7C08C2C1EBC313FBD2C130C103443B
:0B07510080FB7F3C12081CDCEBAF03B8
:01075C00227A
:02078F00AB07B6
:100791007A08C2C1EB1392C17F3C12081CD2C1EB93
:0507A100C313FBDAEDBB
:0107A6002230
:1006AC00AC0712071F7FCC12078F7F4E12078F7F6C
:1006BC000212078F7F0112078FAF0412078F1207E8
:0B06CC001F7FCC12078F7F4802078FB2
:10041F0012071F7FCC12078F7F4412078F7F207E1A
:10042F000312077612071F7FCC12078F7FBE1207AA
:10043F008F120741900093EFF0120741900092EF57
:10044F00F0D3947F4010A3E0F4F0900092E0F40416
:10045F00F0E4900096F0900093E0FCC4540FFE90EF
:10046F000092E0C454F02E900098F0EC540FFF75FA
:10047F00F00AA4C4540FFE900094F0EF75F064A43A
:10048F00C4540F75F00A84AFF0A3EFF0EE75F00AC5
:07049F00A42F900097F0224A
:1005E600480002C0C0C0C0C0C0C0C04A000BC0CFD7
:0805F600A4B0999282F88090F4
:1007A700759850438920758DFD758BFDD28EC2AB30
:0707B700D2ACD2BCD2AF228C
:080840008F993099FDC2992245
:030023000204A62E
:0B04A600C0E0C083C082C0D075D01839
:1004B10030986CC298900059E090000AF090005971
:1004C100E599F0E0FE900038E02439F582E434004B
:1004D100F583EEF0900038E004F090000AE0B4A15A
:1004E10019EEB4A2117F019000387402F0A374A137
:1004F100F0A304F080067F0880027F08900042E0AC
:10050100FE240CFDE433FC900038E0C39DEC6480D4
:0F051100F87480984009E4F090001704F0C2A23B
:09052000D0D0D082D083D0E032AB
:1000260090007E7404F0E4A3F09000167407F0903C
:10003600008074FFF0E4900058F0900017F09000F4
:1000460038F090007DF090007FF0900081F0A3F0F2
:10005600A304F0C2B4C2A3C2A290000BE0F58012C2
:1000660007A71208361200031201B17B017A007944
:10007600029000897408F07F3E12064190003A749F
:1000860001F0A3F0FB7A0079397D041206D77F7060
:100096007E171206FCD2B4D2A3D2A2D2B420B626C0
:1000A6007FC87E001206FC20B61C90003A7401F050
:1000B600E4A3F090000104F0C2A390000BE0F580E9
:1000C60090007F7401F020B7247FC87E001206FCE2
:1000D60020B71AE490003AF0A304F0900001F0C2B1
:1000E600A290000BE0F58090007F7401F090007FF5
:1000F600E0B40117900058E004F07B017A007939EA
:100106007D201206D7E490007FF0F07F327E001249
:1001160006FC90007E7420F09000877401F0A374B2
:1001260000F0A3747EF07B017A0079181202C3EF07
:100136006040C2A3C2A090001AE0240BF582E4340A
:1001460000F583E0F5807F017E001206FC90007FBB
:100156007401F0E4FF74182FF582E43400F583E0AF
:10016600FE74392FF582E43400F583EEF00FEFB418
:100176001FE37F647E001206FCD2AC90007DE00493
:10018600F0E0C394FF4019E4F01200031201B17BC2
:10019600017A0079029000897408F07F3E120641C8
:0B01A600D2A3D2A2D2A1D2A00200A1DD
:10039F00020026E493A3F8E493A34003F68001F24E
:1003AF0008DFF48029E493A3F85407240CC8C3335F
:1003BF00C4540F4420C8834004F456800146F6DF2E
:1003CF00E4800B01020408102040809005A3E47E16
:1003DF00019360BCA3FF543F30E509541FFEE49323
:1003EF00A360010ECF54C025E060A840B8E493A3EA
:1003FF00FAE493A3F8E493A3C8C582C8CAC583CA15
:10040F00F0A3C8C582C8CAC583CADFE9DEE780BECC
:0105FE0000FC
:10052900BB010689828A83E0225002E722BBFE02D0
:09053900E32289828A83E4932203
:10054200BB010CE58229F582E5833AF583E022506E
:1005520006E92582F8E622BBFE06E92582F8E222B8
:0D056200E58229F582E5833AF583E49322D2
:10056F00BB010689828A83F0225002F722BBFE016B
:02057F00F32265
:10058100F8BB010DE58229F582E5833AF583E8F0B0
:10059100225006E92582C8F622BBFE05E92582C85C
:0205A100F22244
:00000001FF
