:100DA0000000000000000000000000000000000043
:100C0800080860606060606060600A33C0CFA4B0AC
:100C1800999282F8809020231000080010A7625B48
:100C2800F80322F80047B610181D1CC700B2EA2ABC
:0C0C38000011598135090B060405000C61
:100CFC00E4FDFCC3ED9FEC9E50070DBD00010C8084
:100D0C00F2E4FCFDC3ED9FEC9E50070DBD00010C01
:020D1C0080F263
:010D1E0022B2
:100D3D00000000000000000000000000000000EFB7
:090D4D001F70011E144E70E82213
:070DC500C292C297D29222F4
:0A0DBB00120DC57F887E13020CFCA8
:100CAB00E4FEC297FDEF30E704D2958002C295EFC8
:100CBB0025E0FFD2970000EE25E0FE3096010EC234
:090CCB009700000DBD08DEAF0624
:010CD40022FD
:100D9000C2922096FD7F30120CAB2096FDD292229B
:100D1F00D2927F017E00120D3DC2927F017E0012A2
:0E0D2F000D3DD2927F297E00120D3D020D90E7
:100D7E00AC05C2922096FD120CABAF04120CABD296
:020D8E009222AF
:060C79008B518A528953E1
:100C7F00EF4440FFC2922096FD120CABE4FCECC394
:100C8F0095545015AB51AA52A9538C8275830012FB
:0B0C9F00090FFF120CAB0C80E5D29295
:010CAA002227
:0B0DB000C2922096FD120CABD29222E2
:100D5600EF4480FFC2922096FD120CABE4FF120C0A
:030D6600ABD2927B
:010D69002267
:060C45008B5F8A608961EB
:100C4B00EF44C0FFC2922096FD120CABE4FCECC348
:100C5B0095625017E4FF120CABAB5FAA60A9618CD5
:0D0C6B0082758300EF12094E0C80E3D292D7
:010C78002259
:100D6A00EF44C0FFC2922096FD120CABE4FF120CB6
:030D7A00ABD29267
:010D7D002253
:10097000AD107F0C120D7EAD117F0B120D7EAD12EE
:100980007F0C120D7EAD137F0D120D7EAD147F0E08
:10099000120D7EAD157F0F120D7EAD167F10120D5C
:1009A0007EAD177F11120D7EAD187F12120D7EAD38
:1009B000197F13120D7EAD1A7F14120D7EAD1B7FB1
:1009C0000A120D7EAD1C7F15120D7EAD1D7F21120A
:1009D0000D7EAD1E7F22120D7EAD1F7F18120D7E83
:1009E000AD207F19120D7EAD217F1A120D7EAD2232
:1009F0007F1B120D7EAD237F1C120D7EAD247F1D4B
:100A0000120D7EAD257F23120D7EAD267F24120DA3
:100A10007EAD277F25120D7EAD287F26120D7EAD7F
:100A2000297F29120D7EAD2A7F2C120D7EAD2B7FE2
:100A30002D120D7EAD2C7F2E120D7EAD2DE4FF12FA
:100A40000D7EAD2E7F02120D7EAD2F7F07120D7E23
:100A5000AD307F08120D7EAD317F09120D7EAD32B3
:050A60007F06020D7E7F
:080CD5007B007A00793F7D08E5
:100CDD008D4F7F3F120D7E854F547F3F120C797FD4
:0F0CED0035120DB03093FD2093FD7F3B020DB00B
:050DCC007F34020DB0B0
:060A65008B558A568957EB
:100A6B00AB58AA59A95A1208F625E025E0FB7F34AA
:100A7B00120DB07F027E00120CFC3093117F027EB0
:100A8B0000120CFC1BEBC3940150EF7F00227F3B49
:100A9B00120D6AEF547F605C7F3F120D568F5DAB7A
:100AAB0058AA59A95A1208F6FFE55DD39F5032ABED
:100ABB0055AA56A957855D627F3F120C45AB58AAC4
:100ACB0059A95AE55D12093C7B007A00795B756286
:100ADB00027F3F120C457F3A120DB0E55C5480FF4C
:100AEB0022AB58AA59A95AE55D12093C7F3A120D5F
:060AFB00B07F00227F0025
:010B010022D1
:100B8E00E4F53DF53E783F7C00FD7BFF7A0D79A0C4
:100B9E00FE7F081208D078477C007D007BFF7A0D1F
:100BAE0079A87E007F081208D0120DBB120D1F12FD
:100BBE0009707B007A0079087554087F3E120C7913
:100BCE00120CD57F707E17120CFC20B608754001F2
:100BDE00753E01B2A620B708754101753E01B2A659
:100BEE00E53EB4010C120CD57540FF7541FFE4F5DE
:0A0BFE003E7FB87E0B120CFC80D085
:03000000020B02EE
:0C0B0200787FE4F6D8FD758162020B4993
:10080000E709F608DFFA8046E709F208DFFA803EDA
:1008100088828C83E709F0A3DFFA8032E309F608C7
:10082000DFFA8078E309F208DFFA807088828C832F
:10083000E309F0A3DFFA806489828A83E0A3F608E3
:10084000DFFA805889828A83E0A3F208DFFA804CBD
:1008500080D280FA80C680D4806980F28033801094
:1008600080A680EA809A80A880DA80E280CA8033FD
:1008700089828A83ECFAE493A3C8C582C8CCC58375
:10088000CCF0A3C8C582C8CCC583CCDFE9DEE78045
:100890000D89828A83E493A3F608DFF9ECFAA9F0C4
:1008A000EDFB2289828A83ECFAE0A3C8C582C8CC1A
:1008B000C583CCF0A3C8C582C8CCC583CCDFEADE33
:1008C000E880DB89828A83E493A3F208DFF980CC95
:1008D00088F0EF60010E4E60C388F0ED2402B4048E
:1008E0000050B9F582EB2402B4040050AF23234535
:0608F00082239008507302
:1008F600BB010689828A83E0225002E722BBFE0200
:09090600E32289828A83E4932232
:10090F00BB010CE58229F582E5833AF583E022509D
:10091F0006E92582F8E622BBFE06E92582F8E222E7
:0D092F00E58229F582E5833AF583E4932201
:10093C00BB010689828A83F0225002F722BBFE019A
:02094C00F32294
:10094E00F8BB010DE58229F582E5833AF583E8F0DF
:10095E00225006E92582C8F622BBFE05E92582C88B
:02096E00F22273
:100B0E00020B8EE493A3F8E493A34003F68001F264
:100B1E0008DFF48029E493A3F85407240CC8C333E8
:100B2E00C4540F4420C8834004F456800146F6DFB7
:100B3E00E4800B0102040810204080900C08E47E33
:100B4E00019360BCA3FF543F30E509541FFEE493AC
:100B5E00A360010ECF54C025E060A840B8E493A373
:100B6E00FAE493A3F8E493A3C8C582C8CAC583CA9E
:100B7E00F0A3C8C582C8CAC583CADFE9DEE780BE56
:010C440000AF
:00000001FF
