:080E7D0000000000000000006D
:100CA100080960606060606060600A34C0CFA4B011
:100CB100999282F8809020231100080010A7625BAE
:100CC100F80322F80047B610181D1CC700B2EA2A23
:0C0CD1000011598135090B060405000CC8
:100D6E00E4FDFCC3ED9FEC9E50070DBD00010C8011
:100D7E00F2E4FCFDC3ED9FEC9E50070DBD00010C8F
:020D8E0080F2F1
:010D90002240
:0A0DFE00D2A0D2A1C2A2D2A37F327C
:0A0E0800EFD3940040031F80F7228F
:100DCE00000000000000000000000000000000EF26
:090DDE001F70011E144E70E82282
:070E8500C292C297D2922233
:0A0E7300120E857F887E13020D6EBB
:100D4400E4FEC297FDEF30E704D2958002C295EF2E
:100D540025E0FFD2970000EE25E0FE3096010EC29A
:090D64009700000DBD08DEAF068A
:010D6D002263
:100E4C00C2922096FD7F30120D442096FDD2922244
:100DB000D2927F017E00120DCEC2927F017E001280
:0E0DC0000DCED2927F297E00120DCE020E4C77
:100E3A00AC05C2922096FD120D44AF04120D44D2A5
:020E4A009222F2
:060D12008B4A8A4B894C5C
:100D1800EF4440FFC2922096FD120D44E4FCECC360
:100D2800954D5015AB4AAA4BA94C8C82758300127D
:0B0D3800090FFF120D440C80E5D29261
:010D4300228D
:0B0E6800C2922096FD120D44D292228F
:100E1200EF4480FFC2922096FD120D44E4FF120DB2
:030E220044D29225
:010E250022AA
:060CDE008B538A54895576
:100CE400EF44C0FFC2922096FD120D44E4FCECC315
:100CF40095565017E4FF120D44AB53AA54A9558CD2
:0D0D040082758300EF12094E0C80E3D2923D
:010D110022BF
:100E2600EF44C0FFC2922096FD120D44E4FF120D5E
:030E360044D29211
:010E39002296
:100A8300AD117F0C120E3AAD127F0B120E3AAD135D
:100A93007F0C120E3AAD147F0D120E3AAD157F0E78
:100AA300120E3AAD167F0F120E3AAD177F10120ECB
:100AB3003AAD187F11120E3AAD197F12120E3AADEC
:100AC3001A7F13120E3AAD1B7F14120E3AAD1C7F20
:100AD3000A120E3AAD1D7F15120E3AAD1E7F21127A
:100AE3000E3AAD1F7F22120E3AAD207F18120E3A36
:100AF300AD217F19120E3AAD227F1A120E3AAD23A1
:100B03007F1B120E3AAD247F1C120E3AAD257F1DBA
:100B1300120E3AAD267F23120E3AAD277F24120E12
:100B23003AAD287F25120E3AAD297F26120E3AAD33
:100B33002A7F29120E3AAD2B7F2C120E3AAD2C7F51
:100B43002D120E3AAD2D7F2E120E3AAD2EE4FF126A
:100B53000E3AAD2F7F02120E3AAD307F07120E3AD6
:100B6300AD317F08120E3AAD327F09120E3AAD3322
:050B73007F06020E3AAE
:100D91008D577F3F120E3A85574D7F3F120D127FBF
:0F0DA10035120E683093FD2093FD7F3B020E68E4
:050E8C007F34020E6836
:060B78008B498A4A894BFB
:100B7E00AB4CAA4DA94E1208F625E025E0FB7F34BA
:100B8E00120E687F027E00120D6E3093117F027E70
:100B9E0000120D6E1BEBC3940150EF7F00227F3BC2
:100BAE00120E26EF547F605C7F3F120E128F51ABF8
:100BBE004CAA4DA94E1208F6FFE551D39F5032AB09
:100BCE0049AA4AA94B8551567F3F120CDEAB4CAA5F
:100BDE004DA94EE55112093C7B007A00794F7556AE
:100BEE00027F3F120CDE7F3A120E68E5505480FFF2
:100BFE0022AB4CAA4DA94EE55112093C7F3A120E7A
:060C0E00687F00227F0058
:010C140022BD
:100DE700759858758921758DFD758BFDD28EC2ABAF
:070DF700D2ACD2BCD2AF2246
:03002300020E5C6E
:0C0E5C00309808C29885990885089932E2
:10097000753F04E4F54078417C00FD7BFF7A0E79F9
:100980007DFE7F041208D078457C007D007BFF7AD5
:100990000E79817E007F041208D0120E73120DB002
:1009A000120A837B007A007909754D087F3E120D8B
:1009B000127F707E17120D6E7580BFC2A0C2A1C2D9
:1009C000A2C2A3754C00754D00754E3F7B007A00A6
:1009D0007945120B78EF60EBE545B4011085348062
:1009E000D2A0D2A1D2A2C2A37F32120E08E545B492
:1009F0001106853580120DFEE545B4210C85368043
:100A0000D2A0C2A1D2A2120E04E545B4310C8537A2
:100A100080C2A0D2A1D2A2120E04E545B441108535
:100A20003880D2A0D2A1D2A2C2A37F32120E08E592
:100A300045B45106853980120DFEE545B4610C853B
:100A40003A80D2A0C2A1D2A2120E04E545B4710C24
:100A5000853B80C2A0D2A1D2A2120E04E545B4818A
:100A600010853C80D2A0D2A1D2A2C2A37F32120EA6
:100A700008E545649160030209C3853D80120DFEBF
:030A80000209C3A5
:03000000020C15DA
:0C0C1500787FE4F6D8FD758157020C5C76
:10080000E709F608DFFA8046E709F208DFFA803EDA
:1008100088828C83E709F0A3DFFA8032E309F608C7
:10082000DFFA8078E309F208DFFA807088828C832F
:10083000E309F0A3DFFA806489828A83E0A3F608E3
:10084000DFFA805889828A83E0A3F208DFFA804CBD
:1008500080D280FA80C680D4806980F28033801094
:1008600080A680EA809A80A880DA80E280CA8033FD
:1008700089828A83ECFAE493A3C8C582C8CCC58375
:10088000CCF0A3C8C582C8CCC583CCDFE9DEE78045
:100890000D89828A83E493A3F608DFF9ECFAA9F0C4
:1008A000EDFB2289828A83ECFAE0A3C8C582C8CC1A
:1008B000C583CCF0A3C8C582C8CCC583CCDFEADE33
:1008C000E880DB89828A83E493A3F208DFF980CC95
:1008D00088F0EF60010E4E60C388F0ED2402B4048E
:1008E0000050B9F582EB2402B4040050AF23234535
:0608F00082239008507302
:1008F600BB010689828A83E0225002E722BBFE0200
:09090600E32289828A83E4932232
:10090F00BB010CE58229F582E5833AF583E022509D
:10091F0006E92582F8E622BBFE06E92582F8E222E7
:0D092F00E58229F582E5833AF583E4932201
:10093C00BB010689828A83F0225002F722BBFE019A
:02094C00F32294
:10094E00F8BB010DE58229F582E5833AF583E8F0DF
:10095E00225006E92582C8F622BBFE05E92582C88B
:02096E00F22273
:100C2100020970E493A3F8E493A34003F68001F270
:100C310008DFF48029E493A3F85407240CC8C333D4
:100C4100C4540F4420C8834004F456800146F6DFA3
:100C5100E4800B0102040810204080900CA1E47E86
:100C6100019360BCA3FF543F30E509541FFEE49398
:100C7100A360010ECF54C025E060A840B8E493A35F
:100C8100FAE493A3F8E493A3C8C582C8CAC583CA8A
:100C9100F0A3C8C582C8CAC583CADFE9DEE780BE42
:010CDD000016
:00000001FF
