:080DAD0000000000000000003E
:100C60000808606060606060606020231000080019
:100C700010A7625BF80322F80047B610181D1CC7C6
:100C800000B2EA2A0011598135090B060405000C4F
:100CBB00E4FDFCC3ED9FEC9E50070DBD00010C80C5
:100CCB00F2E4FCFDC3ED9FEC9E50070DBD00010C43
:020CDB0080F2A5
:010CDD0022F4
:100D1B00000000000000000000000000000000EFD9
:090D2B001F70011E144E70E82235
:070DB500C292C297D2922204
:0A0D9B00120DB57F887E13020CBB19
:100C9100E4FEC297FDEF30E704D2958002C295EFE2
:100CA10025E0FFD2970000EE25E0FE3096010EC24E
:090CB1009700000DBD08DEAF063E
:010CBA002217
:100D8000C2922096FD7F30120C912096FDD29222C5
:100CFD00D2927F017E00120D1BC2927F017E0012E7
:0E0D0D000D1BD2927F297E00120D1B020D805D
:100D5C00AC05C2922096FD120C91AF04120C91D2EC
:020D6C009222D1
:060C2E008B3E8A3F894065
:100C3400EF4440FFC2922096FD120C91E4FCECC3F9
:100C440095415015AB3EAA3FA9408C827583001292
:0B0C5400090FFF120C910C80E5D292FA
:010C5F002272
:0B0D9000C2922096FD120C91D292221C
:100D3400EF4480FFC2922096FD120C91E4FF120C46
:030D440091D292B7
:010D47002289
:060BFA008B478A4889497F
:100C0000EF44C0FFC2922096FD120C91E4FCECC3AD
:100C1000954A5017E4FF120C91AB47AA48A9498C9A
:0D0C200082758300EF12094E0C80E3D29222
:010C2D0022A4
:100D4800EF44C0FFC2922096FD120C91E4FF120CF2
:030D580091D292A3
:010D5B002275
:10097000AD107F0C120D5CAD117F0B120D5CAD1232
:100980007F0C120D5CAD137F0D120D5CAD147F0E4C
:10099000120D5CAD157F0F120D5CAD167F10120DA0
:1009A0005CAD177F11120D5CAD187F12120D5CAD9E
:1009B000197F13120D5CAD1A7F14120D5CAD1B7FF5
:1009C0000A120D5CAD1C7F15120D5CAD1D7F21124E
:1009D0000D5CAD1E7F22120D5CAD1F7F18120D5CE9
:1009E000AD207F19120D5CAD217F1A120D5CAD2276
:1009F0007F1B120D5CAD237F1C120D5CAD247F1D8F
:100A0000120D5CAD257F23120D5CAD267F24120DE7
:100A10005CAD277F25120D5CAD287F26120D5CADE5
:100A2000297F29120D5CAD2A7F2C120D5CAD2B7F26
:100A30002D120D5CAD2C7F2E120D5CAD2DE4FF123E
:100A40000D5CAD2E7F02120D5CAD2F7F07120D5C89
:100A5000AD307F08120D5CAD317F09120D5CAD32F7
:050A60007F06020D5CA1
:100CDE008D4B7F3F120D5C854B417F3F120C2E7F5B
:0F0CEE0035120D903093FD2093FD7F3B020D904A
:050DBC007F34020D90E0
:060A65008B3D8A3E893F33
:100A6B00AB40AA41A9421208F625E025E0FB7F34F2
:100A7B00120D907F027E00120CBB3093117F027E11
:100A8B0000120CBB1BEBC3940150EF7F00227F3B8A
:100A9B00120D48EF547F605C7F3F120D348F45ABD6
:100AAB0040AA41A9421208F6FFE545D39F5032AB4D
:100ABB003DAA3EA93F85454A7F3F120BFAAB40AAA0
:100ACB0041A942E54512093C7B007A007943754AFE
:100ADB00027F3F120BFA7F3A120D90E5445480FFD0
:100AEB0022AB40AA41A942E54512093C7F3A120DBF
:060AFB00907F00227F0045
:010B010022D1
:100D6E00759850758920758DFA758BFAE4F587D2D2
:020D7E008E22C3
:080DA5008F993099FDC29922DB
:100B8E00E4F53478357C00FD7BFF7A0D79ADFE7F80
:100B9E00081208D0120D9B120CFD1209707B007A00
:100BAE000079087541087F3E120C2E7F707E171259
:100BBE000CBB120D6E753408754000754100754200
:100BCE00347B007A007935120A65EF60E8E4F5337C
:100BDE00E533C3940850DE74352533F8E6FF120D65
:0C0BEE00A57FB87E0B120CBB053380E421
:03000000020B02EE
:0C0B0200787FE4F6D8FD75814B020B49AA
:10080000E709F608DFFA8046E709F208DFFA803EDA
:1008100088828C83E709F0A3DFFA8032E309F608C7
:10082000DFFA8078E309F208DFFA807088828C832F
:10083000E309F0A3DFFA806489828A83E0A3F608E3
:10084000DFFA805889828A83E0A3F208DFFA804CBD
:1008500080D280FA80C680D4806980F28033801094
:1008600080A680EA809A80A880DA80E280CA8033FD
:1008700089828A83ECFAE493A3C8C582C8CCC58375
:10088000CCF0A3C8C582C8CCC583CCDFE9DEE78045
:100890000D89828A83E493A3F608DFF9ECFAA9F0C4
:1008A000EDFB2289828A83ECFAE0A3C8C582C8CC1A
:1008B000C583CCF0A3C8C582C8CCC583CCDFEADE33
:1008C000E880DB89828A83E493A3F208DFF980CC95
:1008D00088F0EF60010E4E60C388F0ED2402B4048E
:1008E0000050B9F582EB2402B4040050AF23234535
:0608F00082239008507302
:1008F600BB010689828A83E0225002E722BBFE0200
:09090600E32289828A83E4932232
:10090F00BB010CE58229F582E5833AF583E022509D
:10091F0006E92582F8E622BBFE06E92582F8E222E7
:0D092F00E58229F582E5833AF583E4932201
:10093C00BB010689828A83F0225002F722BBFE019A
:02094C00F32294
:10094E00F8BB010DE58229F582E5833AF583E8F0DF
:10095E00225006E92582C8F622BBFE05E92582C88B
:02096E00F22273
:100B0E00020B8EE493A3F8E493A34003F68001F264
:100B1E0008DFF48029E493A3F85407240CC8C333E8
:100B2E00C4540F4420C8834004F456800146F6DFB7
:100B3E00E4800B0102040810204080900C60E47EDB
:100B4E00019360BCA3FF543F30E509541FFEE493AC
:100B5E00A360010ECF54C025E060A840B8E493A373
:100B6E00FAE493A3F8E493A3C8C582C8CAC583CA9E
:100B7E00F0A3C8C582C8CAC583CADFE9DEE780BE56
:010C90000063
:00000001FF
