:080F7000000000000000000079
:100DA000080960606060606060600A34C0CFA4B011
:100DB000999282F8809020231100080010A7625BAE
:100DC000F80322F80047B610181D1CC700B2EA2A23
:0C0DD0000011598135090B060405000CC8
:100E9400E4FDFCC3ED9FEC9E50070DBD00010C80EA
:100EA400F2E4FCFDC3ED9FEC9E50070DBD00010C68
:020EB40080F2CA
:010EB6002219
:100ED500000000000000000000000000000000EF1E
:090EE5001F70011E144E70E8227A
:070F7800C292C297D292223F
:0A0F6600120F787F887E13020E94AC
:100E4300E4FEC297FDEF30E704D2958002C295EF2E
:100E530025E0FFD2970000EE25E0FE3096010EC29A
:090E63009700000DBD08DEAF068A
:010E6C002263
:100F3F00C2922096FD7F30120E432096FDD2922250
:100EB700D2927F017E00120ED5C2927F017E001270
:0E0EC7000ED5D2927F297E00120ED5020F3F6B
:100F2D00AC05C2922096FD120E43AF04120E43D2B1
:020F3D009222FE
:060E11008B4B8A4C894D59
:100E1700EF4440FFC2922096FD120E43E4FCECC360
:100E2700954E5015AB4BAA4CA94D8C827583001279
:0B0E37000B21FF120E430C80E5D2924D
:010E4200228D
:0B0F5B00C2922096FD120E43D292229B
:100F0500EF4480FFC2922096FD120E43E4FF120EBD
:030F150043D29232
:010F180022B6
:060DDD008B598A5A895B64
:100DE300EF44C0FFC2922096FD120E43E4FCECC315
:100DF300955C5017E4FF120E43AB59AA5AA95B8CBA
:0D0E030082758300EF120B600C80E3D29229
:010E100022BF
:100F1900EF44C0FFC2922096FD120E43E4FF120E69
:030F290043D2921E
:010F2C0022A2
:100B8200AD117F0C120F2DAD127F0B120F2DAD1375
:100B92007F0C120F2DAD147F0D120F2DAD157F0E90
:100BA200120F2DAD167F0F120F2DAD177F10120FE2
:100BB2002DAD187F11120F2DAD197F12120F2DAD11
:100BC2001A7F13120F2DAD1B7F14120F2DAD1C7F38
:100BD2000A120F2DAD1D7F15120F2DAD1E7F211292
:100BE2000F2DAD1F7F22120F2DAD207F18120F2D5A
:100BF200AD217F19120F2DAD227F1A120F2DAD23B9
:100C02007F1B120F2DAD247F1C120F2DAD257F1DD2
:100C1200120F2DAD267F23120F2DAD277F24120F29
:100C22002DAD287F25120F2DAD297F26120F2DAD58
:100C32002A7F29120F2DAD2B7F2C120F2DAD2C7F69
:100C42002D120F2DAD2D7F2E120F2DAD2EE4FF1282
:100C52000F2DAD2F7F02120F2DAD307F07120F2DFA
:100C6200AD317F08120F2DAD327F09120F2DAD333A
:050C72007F06020F2DBA
:080E6D007B007A007941AD3FE2
:100E75008D497F3F120F2D85494E7F3F120E117F01
:0F0E850035120F5B3093FD2093FD7F3B020F5B17
:050F7F007F34020F5B4E
:060C77008B4F8A508951E9
:100C7D00AB52AA53A954120B0825E025E0FB7F3493
:100C8D00120F5B7F027E00120E943093117F027E55
:100C9D0000120E941BEBC3940150EF7F00227F3B9B
:100CAD00120F19EF547F605C7F3F120F058F57AB0A
:100CBD0052AA53A954120B08FFE557D39F5032ABDC
:100CCD004FAA50A95185575C7F3F120DDDAB52AA3B
:100CDD0053A954E557120B4E7B007A007955755C7C
:100CED00027F3F120DDD7F3A120F5BE5565480FFF8
:100CFD0022AB52AA53A954E557120B4E7F3A120F4D
:060D0D005B7F00227F0065
:010D130022BD
:100EEE00759858758921758DFD758BFDD28EC2ABA7
:070EFE00D2ACD2BCD2AF223E
:03002300020F4F7A
:0C0F4F00309808C29885990885089932EE
:10080000753F04E4F54078417C00FD7BFF7A0F7969
:1008100070FE7F04120AE278457C007D007BFF7A3F
:100820000F79747E007F04120AE2120F66120EB76F
:10083000120B827B007A007909754E087F3E120EFA
:10084000117F707E17120E947580BFC2A0C2A1C224
:10085000A2C2A3120EEEE50864307028754101753E
:100860004202754303754404853480D2A0D2A1D2DC
:10087000A2C2A3F53E120E6D053EE53EC3940240B2
:10088000F4E4F542E50864317028754111754212AF
:10089000754313754414853580D2A0D2A1C2A2D26B
:1008A000A3F53E120E6D053EE53EC3940240F4E40E
:1008B000F543E50864327025754121754222754380
:1008C00023754424853680D2A0C2A1D2A2D2A3F53A
:1008D0003E120E6D053EE53EC3940240F4E5086409
:1008E0003370257541317542327543337544348513
:1008F0003780C2A0D2A1D2A2D2A3F53E120E6D05BE
:100900003EE53EC3940240F4E50864347025754129
:1009100041754242754343754444853880D2A0D224
:10092000A1D2A2C2A3F53E120E6D053EE53EC394D0
:100930000240F4E5086435702575415175425275E1
:100940004353754454853980D2A0D2A1C2A2D2A308
:10095000F53E120E6D053EE53EC3940240F4E508F7
:1009600064367025754161754262754363754464F0
:10097000853A80D2A0C2A1D2A2D2A3F53E120E6DBA
:10098000053EE53EC3940240F4E5086437702575E2
:100990004171754272754373754474853B80C2A082
:1009A000D2A1D2A2D2A3F53E120E6D053EE53EC302
:1009B000940240F4E50864387025754181754282DF
:1009C000754383754484853C80D2A0D2A1D2A2C253
:1009D000A3F53E120E6D053EE53EC3940240F4E5DC
:1009E0000864396003020856754191754292754357
:1009F00093754494853D80D2A0D2A1C2A2D2A3F522
:100A00003EE53EC394024003020856120E6D053EB9
:020A100080EF75
:03000000020D14DA
:0C0D1400787FE4F6D8FD75815C020D5B71
:100A1200E709F608DFFA8046E709F208DFFA803EC6
:100A220088828C83E709F0A3DFFA8032E309F608B3
:100A3200DFFA8078E309F208DFFA807088828C831B
:100A4200E309F0A3DFFA806489828A83E0A3F608CF
:100A5200DFFA805889828A83E0A3F208DFFA804CA9
:100A620080D280FA80C680D4806980F28033801080
:100A720080A680EA809A80A880DA80E280CA8033E9
:100A820089828A83ECFAE493A3C8C582C8CCC58361
:100A9200CCF0A3C8C582C8CCC583CCDFE9DEE78031
:100AA2000D89828A83E493A3F608DFF9ECFAA9F0B0
:100AB200EDFB2289828A83ECFAE0A3C8C582C8CC06
:100AC200C583CCF0A3C8C582C8CCC583CCDFEADE1F
:100AD200E880DB89828A83E493A3F208DFF980CC81
:100AE20088F0EF60010E4E60C388F0ED2402B4047A
:100AF2000050B9F582EB2402B4040050AF23234521
:060B02008223900A6273D9
:100B0800BB010689828A83E0225002E722BBFE02EB
:090B1800E32289828A83E493221E
:100B2100BB010CE58229F582E5833AF583E0225089
:100B310006E92582F8E622BBFE06E92582F8E222D3
:0D0B4100E58229F582E5833AF583E49322ED
:100B4E00BB010689828A83F0225002F722BBFE0186
:020B5E00F32280
:100B6000F8BB010DE58229F582E5833AF583E8F0CB
:100B7000225006E92582C8F622BBFE05E92582C877
:020B8000F2225F
:100D2000020800E493A3F8E493A34003F68001F2E1
:100D300008DFF48029E493A3F85407240CC8C333D4
:100D4000C4540F4420C8834004F456800146F6DFA3
:100D5000E4800B0102040810204080900DA0E47E86
:100D6000019360BCA3FF543F30E509541FFEE49398
:100D7000A360010ECF54C025E060A840B8E493A35F
:100D8000FAE493A3F8E493A3C8C582C8CAC583CA8A
:100D9000F0A3C8C582C8CAC583CADFE9DEE780BE42
:010DDC000016
:00000001FF
