:080E34000000000000000000B6
:100C0E000A3BC0CFA4B0999282F880900A45404F1B
:100C1E0024301912027800100233000008086060B8
:100C2E0060606060606020231000080010A7625BA7
:100C3E00F80322F80047B610181D1CC700B2EA2AA6
:0C0C4E000011598135090B060405000C4B
:100D2D00E4FDFCC3ED9FEC9E50070DBD00010C8052
:100D3D00F2E4FCFDC3ED9FEC9E50070DBD00010CD0
:020D4D0080F232
:010D4F002281
:040DA6007F287E0024
:100DAA00D3EF9400EE94004007EF1F70F31E80F01B
:010DBA002216
:100D8D00000000000000000000000000000000EF67
:090D9D001F70011E144E70E822C3
:070E3C00C292C297D292227C
:0A0E2200120E3C7F887E13020D2D96
:100D0300E4FEC297FDEF30E704D2958002C295EF6F
:100D130025E0FFD2970000EE25E0FE3096010EC2DB
:090D23009700000DBD08DEAF06CB
:010D2C0022A4
:100E0700C2922096FD7F30120D032096FDD29222CA
:100D6F00D2927F017E00120D8DC2927F017E001202
:0E0D7F000D8DD2927F297E00120D8D020E077F
:100DE300AC05C2922096FD120D03AF04120D03D27F
:020DF30092224A
:060CD1008B618A62896359
:100CD700EF4440FFC2922096FD120D03E4FCECC3E3
:100CE70095645015AB61AA62A9638C827583001263
:0B0CF700090FFF120D030C80E5D292E4
:010D020022CE
:0B0E1700C2922096FD120D03D2922221
:100DBB00EF4480FFC2922096FD120D03E4FF120D4B
:030DCB0003D292BE
:010DCE002202
:060C9D008B6A8A6B896C72
:100CA300EF44C0FFC2922096FD120D03E4FCECC397
:100CB300956D5017E4FF120D03AB6AAA6BA96C8CF8
:0D0CC30082758300EF12094E0C80E3D2927F
:010CD0002201
:100DCF00EF44C0FFC2922096FD120D03E4FF120DF7
:030DDF0003D292AA
:010DE20022EE
:10097000AD107F0C120DE3AD117F0B120DE3AD1224
:100980007F0C120DE3AD137F0D120DE3AD147F0E3E
:10099000120DE3AD157F0F120DE3AD167F10120D92
:1009A000E3AD177F11120DE3AD187F12120DE3AD09
:1009B000197F13120DE3AD1A7F14120DE3AD1B7FE7
:1009C0000A120DE3AD1C7F15120DE3AD1D7F211240
:1009D0000DE3AD1E7F22120DE3AD1F7F18120DE354
:1009E000AD207F19120DE3AD217F1A120DE3AD2268
:1009F0007F1B120DE3AD237F1C120DE3AD247F1D81
:100A0000120DE3AD257F23120DE3AD267F24120DD9
:100A1000E3AD277F25120DE3AD287F26120DE3AD50
:100A2000297F29120DE3AD2A7F2C120DE3AD2B7F18
:100A30002D120DE3AD2C7F2E120DE3AD2DE4FF1230
:100A40000DE3AD2E7F02120DE3AD2F7F07120DE3F4
:100A5000AD307F08120DE3AD317F09120DE3AD32E9
:050A60007F06020DE31A
:100D50008D6E7F3F120DE3856E647F3F120CD17F55
:0F0D600035120E173093FD2093FD7F3B020E17C7
:050E43007F34020E17D0
:060A65008B608A618962CA
:100A6B00AB63AA64A9651208F625E025E0FB7F3489
:100A7B00120E177F027E00120D2D3093117F027E16
:100A8B0000120D2D1BEBC3940150EF7F00227F3B17
:100A9B00120DCFEF547F605C7F3F120DBB8F68ABA5
:100AAB0063AA64A9651208F6FFE568D39F5032ABC1
:100ABB0060AA61A96285686D7F3F120C9DAB63AA2A
:100ACB0064A965E56812093C7B007A007966756D4F
:100ADB00027F3F120C9D7F3A120E17E5675480FF81
:100AEB0022AB63AA64A965E56812093C7F3A120E32
:060AFB00177F00227F00BE
:010B010022D1
:100C5B00E535603DE4FD7580C6C2A0120DA6D2A09D
:100C6B00743B2536F8E6F580C2A1120DA6D2A1740D
:100C7B0045253AF8E6F580C2A2120DA6D2A2743B26
:100C8B002539F8E6F580C2A3120DA6D2A30DBD033C
:010C9B00C593
:010C9C002235
:100DF500759850758920758DFA758BFAE4F587D24B
:020E05008E223B
:080E2C008F993099FDC2992253
:100B8E00E4F55778587C00FD7BFF7A0E7934FE7FB2
:100B9E00081208D0120E22120D6F1209707B007A05
:100BAE000079087564087F3E120CD17F707E171293
:100BBE000D2D120DF575570475630075640075657E
:100BCE00577B007A007958120A65EF60E8855B352D
:100BDE00E55AC454F04559F537855836855A398546
:100BEE00593AE4FBC374029B2435F8E6FF120E2C2F
:100BFE007F647E00120D2D0BBB03E9120C5B80B5DA
:03000000020B02EE
:0C0B0200787FE4F6D8FD75816E020B4987
:10080000E709F608DFFA8046E709F208DFFA803EDA
:1008100088828C83E709F0A3DFFA8032E309F608C7
:10082000DFFA8078E309F208DFFA807088828C832F
:10083000E309F0A3DFFA806489828A83E0A3F608E3
:10084000DFFA805889828A83E0A3F208DFFA804CBD
:1008500080D280FA80C680D4806980F28033801094
:1008600080A680EA809A80A880DA80E280CA8033FD
:1008700089828A83ECFAE493A3C8C582C8CCC58375
:10088000CCF0A3C8C582C8CCC583CCDFE9DEE78045
:100890000D89828A83E493A3F608DFF9ECFAA9F0C4
:1008A000EDFB2289828A83ECFAE0A3C8C582C8CC1A
:1008B000C583CCF0A3C8C582C8CCC583CCDFEADE33
:1008C000E880DB89828A83E493A3F208DFF980CC95
:1008D00088F0EF60010E4E60C388F0ED2402B4048E
:1008E0000050B9F582EB2402B4040050AF23234535
:0608F00082239008507302
:1008F600BB010689828A83E0225002E722BBFE0200
:09090600E32289828A83E4932232
:10090F00BB010CE58229F582E5833AF583E022509D
:10091F0006E92582F8E622BBFE06E92582F8E222E7
:0D092F00E58229F582E5833AF583E4932201
:10093C00BB010689828A83F0225002F722BBFE019A
:02094C00F32294
:10094E00F8BB010DE58229F582E5833AF583E8F0DF
:10095E00225006E92582C8F622BBFE05E92582C88B
:02096E00F22273
:100B0E00020B8EE493A3F8E493A34003F68001F264
:100B1E0008DFF48029E493A3F85407240CC8C333E8
:100B2E00C4540F4420C8834004F456800146F6DFB7
:100B3E00E4800B0102040810204080900C0EE47E2D
:100B4E00019360BCA3FF543F30E509541FFEE493AC
:100B5E00A360010ECF54C025E060A840B8E493A373
:100B6E00FAE493A3F8E493A3C8C582C8CAC583CA9E
:100B7E00F0A3C8C582C8CAC583CADFE9DEE780BE56
:010C5A000099
:00000001FF
